{
  "contractName": "Genr8",
  "abi": [
    {
      "constant": true,
      "inputs": [],
      "name": "percision",
      "outputs": [
        {
          "name": "",
          "type": "uint256"
        }
      ],
      "payable": false,
      "stateMutability": "view",
      "type": "function"
    },
    {
      "constant": true,
      "inputs": [],
      "name": "ownerCandidate",
      "outputs": [
        {
          "name": "",
          "type": "address"
        }
      ],
      "payable": false,
      "stateMutability": "view",
      "type": "function"
    },
    {
      "constant": true,
      "inputs": [],
      "name": "counter",
      "outputs": [
        {
          "name": "",
          "type": "address"
        }
      ],
      "payable": false,
      "stateMutability": "view",
      "type": "function"
    },
    {
      "constant": false,
      "inputs": [],
      "name": "acceptOwnership",
      "outputs": [],
      "payable": false,
      "stateMutability": "nonpayable",
      "type": "function"
    },
    {
      "constant": true,
      "inputs": [],
      "name": "owner",
      "outputs": [
        {
          "name": "",
          "type": "address"
        }
      ],
      "payable": false,
      "stateMutability": "view",
      "type": "function"
    },
    {
      "constant": false,
      "inputs": [
        {
          "name": "_newOwner",
          "type": "address"
        }
      ],
      "name": "changeOwner",
      "outputs": [],
      "payable": false,
      "stateMutability": "nonpayable",
      "type": "function"
    },
    {
      "inputs": [],
      "payable": false,
      "stateMutability": "nonpayable",
      "type": "constructor"
    },
    {
      "payable": true,
      "stateMutability": "payable",
      "type": "fallback"
    },
    {
      "anonymous": false,
      "inputs": [
        {
          "indexed": true,
          "name": "customerAddress",
          "type": "address"
        },
        {
          "indexed": false,
          "name": "incomingCounter",
          "type": "uint256"
        },
        {
          "indexed": false,
          "name": "tokensMinted",
          "type": "uint256"
        }
      ],
      "name": "Buy",
      "type": "event"
    },
    {
      "anonymous": false,
      "inputs": [
        {
          "indexed": true,
          "name": "customerAddress",
          "type": "address"
        },
        {
          "indexed": false,
          "name": "tokensBurned",
          "type": "uint256"
        },
        {
          "indexed": false,
          "name": "counterEarned",
          "type": "uint256"
        }
      ],
      "name": "Sell",
      "type": "event"
    },
    {
      "anonymous": false,
      "inputs": [
        {
          "indexed": false,
          "name": "amount",
          "type": "uint256"
        },
        {
          "indexed": false,
          "name": "source",
          "type": "address"
        },
        {
          "indexed": false,
          "name": "reason",
          "type": "string"
        }
      ],
      "name": "Revenue",
      "type": "event"
    },
    {
      "anonymous": false,
      "inputs": [
        {
          "indexed": true,
          "name": "from",
          "type": "address"
        },
        {
          "indexed": true,
          "name": "to",
          "type": "address"
        },
        {
          "indexed": false,
          "name": "tokens",
          "type": "uint256"
        }
      ],
      "name": "Transfer",
      "type": "event"
    },
    {
      "anonymous": false,
      "inputs": [
        {
          "indexed": true,
          "name": "tokenOwner",
          "type": "address"
        },
        {
          "indexed": true,
          "name": "spender",
          "type": "address"
        },
        {
          "indexed": false,
          "name": "tokens",
          "type": "uint256"
        }
      ],
      "name": "Approval",
      "type": "event"
    },
    {
      "constant": false,
      "inputs": [
        {
          "name": "newName",
          "type": "bytes32"
        }
      ],
      "name": "setName",
      "outputs": [],
      "payable": false,
      "stateMutability": "nonpayable",
      "type": "function"
    },
    {
      "constant": false,
      "inputs": [
        {
          "name": "newSymbol",
          "type": "bytes32"
        }
      ],
      "name": "setSymbol",
      "outputs": [],
      "payable": false,
      "stateMutability": "nonpayable",
      "type": "function"
    },
    {
      "constant": false,
      "inputs": [
        {
          "name": "_decimals",
          "type": "uint8"
        }
      ],
      "name": "setDecimals",
      "outputs": [],
      "payable": false,
      "stateMutability": "nonpayable",
      "type": "function"
    },
    {
      "constant": false,
      "inputs": [
        {
          "name": "_sellRevenuePercent",
          "type": "uint256"
        },
        {
          "name": "_percision",
          "type": "uint256"
        }
      ],
      "name": "setSellRevenuePercent",
      "outputs": [],
      "payable": false,
      "stateMutability": "nonpayable",
      "type": "function"
    },
    {
      "constant": false,
      "inputs": [
        {
          "name": "_counter",
          "type": "address"
        }
      ],
      "name": "setCounter",
      "outputs": [],
      "payable": false,
      "stateMutability": "nonpayable",
      "type": "function"
    },
    {
      "constant": false,
      "inputs": [],
      "name": "buy",
      "outputs": [
        {
          "name": "",
          "type": "uint256"
        }
      ],
      "payable": true,
      "stateMutability": "payable",
      "type": "function"
    },
    {
      "constant": false,
      "inputs": [
        {
          "name": "amount",
          "type": "uint256"
        }
      ],
      "name": "buyERC20",
      "outputs": [
        {
          "name": "",
          "type": "uint256"
        }
      ],
      "payable": false,
      "stateMutability": "nonpayable",
      "type": "function"
    },
    {
      "constant": false,
      "inputs": [],
      "name": "donate",
      "outputs": [],
      "payable": true,
      "stateMutability": "payable",
      "type": "function"
    },
    {
      "constant": false,
      "inputs": [
        {
          "name": "amountOfTokens",
          "type": "uint256"
        }
      ],
      "name": "sell",
      "outputs": [
        {
          "name": "",
          "type": "uint256"
        }
      ],
      "payable": false,
      "stateMutability": "nonpayable",
      "type": "function"
    },
    {
      "constant": false,
      "inputs": [
        {
          "name": "toAddress",
          "type": "address"
        },
        {
          "name": "amountOfTokens",
          "type": "uint256"
        }
      ],
      "name": "transfer",
      "outputs": [
        {
          "name": "",
          "type": "bool"
        }
      ],
      "payable": false,
      "stateMutability": "nonpayable",
      "type": "function"
    },
    {
      "constant": false,
      "inputs": [
        {
          "name": "spender",
          "type": "address"
        },
        {
          "name": "tokens",
          "type": "uint256"
        }
      ],
      "name": "approve",
      "outputs": [
        {
          "name": "success",
          "type": "bool"
        }
      ],
      "payable": false,
      "stateMutability": "nonpayable",
      "type": "function"
    },
    {
      "constant": false,
      "inputs": [
        {
          "name": "from",
          "type": "address"
        },
        {
          "name": "to",
          "type": "address"
        },
        {
          "name": "tokens",
          "type": "uint256"
        }
      ],
      "name": "transferFrom",
      "outputs": [
        {
          "name": "success",
          "type": "bool"
        }
      ],
      "payable": false,
      "stateMutability": "nonpayable",
      "type": "function"
    },
    {
      "constant": true,
      "inputs": [
        {
          "name": "tokenOwner",
          "type": "address"
        },
        {
          "name": "spender",
          "type": "address"
        }
      ],
      "name": "allowance",
      "outputs": [
        {
          "name": "remaining",
          "type": "uint256"
        }
      ],
      "payable": false,
      "stateMutability": "view",
      "type": "function"
    },
    {
      "constant": false,
      "inputs": [
        {
          "name": "spender",
          "type": "address"
        },
        {
          "name": "tokens",
          "type": "uint256"
        },
        {
          "name": "data",
          "type": "bytes"
        }
      ],
      "name": "approveAndCall",
      "outputs": [
        {
          "name": "success",
          "type": "bool"
        }
      ],
      "payable": false,
      "stateMutability": "nonpayable",
      "type": "function"
    },
    {
      "constant": true,
      "inputs": [],
      "name": "counterBalance",
      "outputs": [
        {
          "name": "",
          "type": "uint256"
        }
      ],
      "payable": false,
      "stateMutability": "view",
      "type": "function"
    },
    {
      "constant": true,
      "inputs": [],
      "name": "name",
      "outputs": [
        {
          "name": "",
          "type": "bytes32"
        }
      ],
      "payable": false,
      "stateMutability": "view",
      "type": "function"
    },
    {
      "constant": true,
      "inputs": [],
      "name": "symbol",
      "outputs": [
        {
          "name": "",
          "type": "bytes32"
        }
      ],
      "payable": false,
      "stateMutability": "view",
      "type": "function"
    },
    {
      "constant": true,
      "inputs": [],
      "name": "decimals",
      "outputs": [
        {
          "name": "",
          "type": "uint8"
        }
      ],
      "payable": false,
      "stateMutability": "view",
      "type": "function"
    },
    {
      "constant": true,
      "inputs": [],
      "name": "sellRevenuePercent",
      "outputs": [
        {
          "name": "",
          "type": "uint256"
        },
        {
          "name": "",
          "type": "uint256"
        }
      ],
      "payable": false,
      "stateMutability": "view",
      "type": "function"
    },
    {
      "constant": true,
      "inputs": [],
      "name": "totalTokens",
      "outputs": [
        {
          "name": "",
          "type": "uint256"
        }
      ],
      "payable": false,
      "stateMutability": "view",
      "type": "function"
    },
    {
      "constant": true,
      "inputs": [],
      "name": "myTokens",
      "outputs": [
        {
          "name": "",
          "type": "uint256"
        }
      ],
      "payable": false,
      "stateMutability": "view",
      "type": "function"
    },
    {
      "constant": true,
      "inputs": [
        {
          "name": "customerAddress",
          "type": "address"
        }
      ],
      "name": "balanceOf",
      "outputs": [
        {
          "name": "",
          "type": "uint256"
        }
      ],
      "payable": false,
      "stateMutability": "view",
      "type": "function"
    },
    {
      "constant": true,
      "inputs": [
        {
          "name": "anAmount",
          "type": "uint256"
        }
      ],
      "name": "tokensToCounter",
      "outputs": [
        {
          "name": "",
          "type": "uint256"
        }
      ],
      "payable": false,
      "stateMutability": "view",
      "type": "function"
    },
    {
      "constant": true,
      "inputs": [
        {
          "name": "anAmount",
          "type": "uint256"
        }
      ],
      "name": "counterToTokens",
      "outputs": [
        {
          "name": "",
          "type": "uint256"
        }
      ],
      "payable": false,
      "stateMutability": "view",
      "type": "function"
    },
    {
      "constant": true,
      "inputs": [
        {
          "name": "anAmount",
          "type": "uint256"
        }
      ],
      "name": "revenueCost",
      "outputs": [
        {
          "name": "",
          "type": "uint256"
        }
      ],
      "payable": false,
      "stateMutability": "view",
      "type": "function"
    },
    {
      "constant": false,
      "inputs": [
        {
          "name": "tokenAddress",
          "type": "address"
        },
        {
          "name": "tokens",
          "type": "uint256"
        }
      ],
      "name": "transferAnyERC20Token",
      "outputs": [
        {
          "name": "success",
          "type": "bool"
        }
      ],
      "payable": false,
      "stateMutability": "nonpayable",
      "type": "function"
    }
  ],
  "bytecode": "0x60806040527f47656e72380000000000000000000000000000000000000000000000000000006002906000191690557f474e380000000000000000000000000000000000000000000000000000000000600390600019169055600a60045560646005556012600660006101000a81548160ff021916908360ff1602179055506000600660016101000a81548173ffffffffffffffffffffffffffffffffffffffff021916908373ffffffffffffffffffffffffffffffffffffffff1602179055506000600a553480156100d157600080fd5b50336000806101000a81548173ffffffffffffffffffffffffffffffffffffffff021916908373ffffffffffffffffffffffffffffffffffffffff16021790555061275a806101216000396000f300608060405260043610610196576000357c0100000000000000000000000000000000000000000000000000000000900463ffffffff16806306fdde0314610283578063095ea7b3146102b65780630968e9ed1461031b5780630dcdf8481461034d57806313324cdb1461038e57806323646eec146103cf57806323b872dd14610412578063313ce56714610497578063334ef43d146104c857806338ec19151461050957806349e65440146105345780634db7f0bb146105655780635ac801fe1461059c5780635f504a82146105cd57806361bc221a146106245780636b01acf51461067b57806370a08231146106bc57806379ba5097146107135780637a1395aa1461072a5780637e1c0c091461075a5780638365df16146107855780638da5cb5b146107b0578063949e8acd1461080757806395d89b4114610832578063a6f2ae3a14610865578063a6f9dae114610883578063a9059cbb146108c6578063cae9ca511461092b578063dc39d06d146109d6578063dd62ed3e14610a3b578063e4849b3214610ab2578063ed88c68e14610af3575b6000600660019054906101000a900473ffffffffffffffffffffffffffffffffffffffff1673ffffffffffffffffffffffffffffffffffffffff161415156101dd57600080fd5b7faa89e031a6f514af7ca74133f47031fe415865a81dfc652852bdf9def9dcaa5c3433604051808381526020018273ffffffffffffffffffffffffffffffffffffffff1673ffffffffffffffffffffffffffffffffffffffff168152602001806020018281038252600b8152602001807f455448204465706f736974000000000000000000000000000000000000000000815250602001935050505060405180910390a1005b34801561028f57600080fd5b50610298610afd565b60405180826000191660001916815260200191505060405180910390f35b3480156102c257600080fd5b50610301600480360381019080803573ffffffffffffffffffffffffffffffffffffffff16906020019092919080359060200190929190505050610b07565b604051808215151515815260200191505060405180910390f35b34801561032757600080fd5b50610330610bf9565b604051808381526020018281526020019250505060405180910390f35b34801561035957600080fd5b5061037860048036038101908080359060200190929190505050610c0a565b6040518082815260200191505060405180910390f35b34801561039a57600080fd5b506103b960048036038101908080359060200190929190505050610da3565b6040518082815260200191505060405180910390f35b3480156103db57600080fd5b50610410600480360381019080803573ffffffffffffffffffffffffffffffffffffffff169060200190929190505050610dd6565b005b34801561041e57600080fd5b5061047d600480360381019080803573ffffffffffffffffffffffffffffffffffffffff169060200190929190803573ffffffffffffffffffffffffffffffffffffffff16906020019092919080359060200190929190505050610e9e565b604051808215151515815260200191505060405180910390f35b3480156104a357600080fd5b506104ac611240565b604051808260ff1660ff16815260200191505060405180910390f35b3480156104d457600080fd5b506104f360048036038101908080359060200190929190505050611257565b6040518082815260200191505060405180910390f35b34801561051557600080fd5b5061051e611297565b6040518082815260200191505060405180910390f35b34801561054057600080fd5b50610563600480360381019080803560001916906020019092919050505061129d565b005b34801561057157600080fd5b5061059a6004803603810190808035906020019092919080359060200190929190505050611306565b005b3480156105a857600080fd5b506105cb600480360381019080803560001916906020019092919050505061139c565b005b3480156105d957600080fd5b506105e2611405565b604051808273ffffffffffffffffffffffffffffffffffffffff1673ffffffffffffffffffffffffffffffffffffffff16815260200191505060405180910390f35b34801561063057600080fd5b5061063961142b565b604051808273ffffffffffffffffffffffffffffffffffffffff1673ffffffffffffffffffffffffffffffffffffffff16815260200191505060405180910390f35b34801561068757600080fd5b506106a660048036038101908080359060200190929190505050611451565b6040518082815260200191505060405180910390f35b3480156106c857600080fd5b506106fd600480360381019080803573ffffffffffffffffffffffffffffffffffffffff1690602001909291905050506114a9565b6040518082815260200191505060405180910390f35b34801561071f57600080fd5b506107286114f2565b005b34801561073657600080fd5b50610758600480360381019080803560ff1690602001909291905050506115b2565b005b34801561076657600080fd5b5061076f611654565b6040518082815260200191505060405180910390f35b34801561079157600080fd5b5061079a61165e565b6040518082815260200191505060405180910390f35b3480156107bc57600080fd5b506107c56117bd565b604051808273ffffffffffffffffffffffffffffffffffffffff1673ffffffffffffffffffffffffffffffffffffffff16815260200191505060405180910390f35b34801561081357600080fd5b5061081c6117e2565b6040518082815260200191505060405180910390f35b34801561083e57600080fd5b506108476117f2565b60405180826000191660001916815260200191505060405180910390f35b61086d6117fc565b6040518082815260200191505060405180910390f35b34801561088f57600080fd5b506108c4600480360381019080803573ffffffffffffffffffffffffffffffffffffffff1690602001909291905050506118a4565b005b3480156108d257600080fd5b50610911600480360381019080803573ffffffffffffffffffffffffffffffffffffffff16906020019092919080359060200190929190505050611943565b604051808215151515815260200191505060405180910390f35b34801561093757600080fd5b506109bc600480360381019080803573ffffffffffffffffffffffffffffffffffffffff16906020019092919080359060200190929190803590602001908201803590602001908080601f0160208091040260200160405190810160405280939291908181526020018383808284378201915050505050509192919290505050611a0e565b604051808215151515815260200191505060405180910390f35b3480156109e257600080fd5b50610a21600480360381019080803573ffffffffffffffffffffffffffffffffffffffff16906020019092919080359060200190929190505050611c5d565b604051808215151515815260200191505060405180910390f35b348015610a4757600080fd5b50610a9c600480360381019080803573ffffffffffffffffffffffffffffffffffffffff169060200190929190803573ffffffffffffffffffffffffffffffffffffffff169060200190929190505050611e1e565b6040518082815260200191505060405180910390f35b348015610abe57600080fd5b50610add60048036038101908080359060200190929190505050611ea5565b6040518082815260200191505060405180910390f35b610afb611ecd565b005b6000600254905090565b600081600960003373ffffffffffffffffffffffffffffffffffffffff1673ffffffffffffffffffffffffffffffffffffffff16815260200190815260200160002060008573ffffffffffffffffffffffffffffffffffffffff1673ffffffffffffffffffffffffffffffffffffffff168152602001908152602001600020819055508273ffffffffffffffffffffffffffffffffffffffff163373ffffffffffffffffffffffffffffffffffffffff167f8c5be1e5ebec7d5bd14f71427d1e84f3dd0314c0f7b2291e5b200ac8c7c3b925846040518082815260200191505060405180910390a36001905092915050565b600080600454600554915091509091565b600080600660019054906101000a900473ffffffffffffffffffffffffffffffffffffffff1673ffffffffffffffffffffffffffffffffffffffff1614151515610c5357600080fd5b600660019054906101000a900473ffffffffffffffffffffffffffffffffffffffff1673ffffffffffffffffffffffffffffffffffffffff166323b872dd3330856040518463ffffffff167c0100000000000000000000000000000000000000000000000000000000028152600401808473ffffffffffffffffffffffffffffffffffffffff1673ffffffffffffffffffffffffffffffffffffffff1681526020018373ffffffffffffffffffffffffffffffffffffffff1673ffffffffffffffffffffffffffffffffffffffff1681526020018281526020019350505050602060405180830381600087803b158015610d4c57600080fd5b505af1158015610d60573d6000803e3d6000fd5b505050506040513d6020811015610d7657600080fd5b81019080805190602001909291905050501515610d9257600080fd5b610d9c3383611f73565b9050919050565b60008060045411610db5576000610dcf565b600554610dc4836004546120f3565b811515610dcd57fe5b045b9050919050565b6000610de0611654565b148015610df457506000610df261165e565b145b1515610dff57600080fd5b6000809054906101000a900473ffffffffffffffffffffffffffffffffffffffff1673ffffffffffffffffffffffffffffffffffffffff163373ffffffffffffffffffffffffffffffffffffffff16141515610e5a57600080fd5b80600660016101000a81548173ffffffffffffffffffffffffffffffffffffffff021916908373ffffffffffffffffffffffffffffffffffffffff16021790555050565b600080610ea96117e2565b111515610eb557600080fd5b600082118015610f04575081600760008673ffffffffffffffffffffffffffffffffffffffff1673ffffffffffffffffffffffffffffffffffffffff1681526020019081526020016000205411155b8015610f8c5750600960008573ffffffffffffffffffffffffffffffffffffffff1673ffffffffffffffffffffffffffffffffffffffff16815260200190815260200160002060003373ffffffffffffffffffffffffffffffffffffffff1673ffffffffffffffffffffffffffffffffffffffff168152602001908152602001600020548211155b1515610f9757600080fd5b610fe982600760008773ffffffffffffffffffffffffffffffffffffffff1673ffffffffffffffffffffffffffffffffffffffff1681526020019081526020016000205461212e90919063ffffffff16565b600760008673ffffffffffffffffffffffffffffffffffffffff1673ffffffffffffffffffffffffffffffffffffffff168152602001908152602001600020819055506110bb82600960008773ffffffffffffffffffffffffffffffffffffffff1673ffffffffffffffffffffffffffffffffffffffff16815260200190815260200160002060003373ffffffffffffffffffffffffffffffffffffffff1673ffffffffffffffffffffffffffffffffffffffff1681526020019081526020016000205461212e90919063ffffffff16565b600960008673ffffffffffffffffffffffffffffffffffffffff1673ffffffffffffffffffffffffffffffffffffffff16815260200190815260200160002060003373ffffffffffffffffffffffffffffffffffffffff1673ffffffffffffffffffffffffffffffffffffffff1681526020019081526020016000208190555061118d82600760008673ffffffffffffffffffffffffffffffffffffffff1673ffffffffffffffffffffffffffffffffffffffff1681526020019081526020016000205461214790919063ffffffff16565b600760008573ffffffffffffffffffffffffffffffffffffffff1673ffffffffffffffffffffffffffffffffffffffff168152602001908152602001600020819055508273ffffffffffffffffffffffffffffffffffffffff168473ffffffffffffffffffffffffffffffffffffffff167fddf252ad1be2c89b69c2b068fc378daa952ba7f163c4a11628f55a4df523b3ef846040518082815260200191505060405180910390a3600190509392505050565b6000600660009054906101000a900460ff16905090565b600061129061128861128261127561126d611654565b6005546120f3565b61127d61165e565b612165565b846120f3565b600554612165565b9050919050565b60055481565b6000809054906101000a900473ffffffffffffffffffffffffffffffffffffffff1673ffffffffffffffffffffffffffffffffffffffff163373ffffffffffffffffffffffffffffffffffffffff161415156112f857600080fd5b806003816000191690555050565b6000611310611654565b1480156113245750600061132261165e565b145b151561132f57600080fd5b6000809054906101000a900473ffffffffffffffffffffffffffffffffffffffff1673ffffffffffffffffffffffffffffffffffffffff163373ffffffffffffffffffffffffffffffffffffffff1614151561138a57600080fd5b81600481905550806005819055505050565b6000809054906101000a900473ffffffffffffffffffffffffffffffffffffffff1673ffffffffffffffffffffffffffffffffffffffff163373ffffffffffffffffffffffffffffffffffffffff161415156113f757600080fd5b806002816000191690555050565b600160009054906101000a900473ffffffffffffffffffffffffffffffffffffffff1681565b600660019054906101000a900473ffffffffffffffffffffffffffffffffffffffff1681565b60008061145c611654565b141561146a578190506114a4565b6114a16114998361149461148761147f611654565b6005546120f3565b61148f61165e565b612165565b612165565b6005546120f3565b90505b919050565b6000600760008373ffffffffffffffffffffffffffffffffffffffff1673ffffffffffffffffffffffffffffffffffffffff168152602001908152602001600020549050919050565b600160009054906101000a900473ffffffffffffffffffffffffffffffffffffffff1673ffffffffffffffffffffffffffffffffffffffff163373ffffffffffffffffffffffffffffffffffffffff1614151561154e57600080fd5b600160009054906101000a900473ffffffffffffffffffffffffffffffffffffffff166000806101000a81548173ffffffffffffffffffffffffffffffffffffffff021916908373ffffffffffffffffffffffffffffffffffffffff160217905550565b60006115bc611654565b1480156115d0575060006115ce61165e565b145b15156115db57600080fd5b6000809054906101000a900473ffffffffffffffffffffffffffffffffffffffff1673ffffffffffffffffffffffffffffffffffffffff163373ffffffffffffffffffffffffffffffffffffffff1614151561163657600080fd5b80600660006101000a81548160ff021916908360ff16021790555050565b6000600a54905090565b600080600660019054906101000a900473ffffffffffffffffffffffffffffffffffffffff1673ffffffffffffffffffffffffffffffffffffffff1614156116bf573073ffffffffffffffffffffffffffffffffffffffff163190506117ba565b600660019054906101000a900473ffffffffffffffffffffffffffffffffffffffff1673ffffffffffffffffffffffffffffffffffffffff166370a08231306040518263ffffffff167c0100000000000000000000000000000000000000000000000000000000028152600401808273ffffffffffffffffffffffffffffffffffffffff1673ffffffffffffffffffffffffffffffffffffffff168152602001915050602060405180830381600087803b15801561177c57600080fd5b505af1158015611790573d6000803e3d6000fd5b505050506040513d60208110156117a657600080fd5b810190808051906020019092919050505090505b90565b6000809054906101000a900473ffffffffffffffffffffffffffffffffffffffff1681565b60006117ed336114a9565b905090565b6000600354905090565b600080600660019054906101000a900473ffffffffffffffffffffffffffffffffffffffff1673ffffffffffffffffffffffffffffffffffffffff1614151561184457600080fd5b6000341115611895576000600660019054906101000a900473ffffffffffffffffffffffffffffffffffffffff1673ffffffffffffffffffffffffffffffffffffffff1614151561189457600080fd5b5b61189f3334611f73565b905090565b6000809054906101000a900473ffffffffffffffffffffffffffffffffffffffff1673ffffffffffffffffffffffffffffffffffffffff163373ffffffffffffffffffffffffffffffffffffffff161415156118ff57600080fd5b80600160006101000a81548173ffffffffffffffffffffffffffffffffffffffff021916908373ffffffffffffffffffffffffffffffffffffffff16021790555050565b60008061194e6117e2565b11151561195a57600080fd5b3073ffffffffffffffffffffffffffffffffffffffff168373ffffffffffffffffffffffffffffffffffffffff1614156119fb5760008211156119a2576119a082611ea5565b505b60003373ffffffffffffffffffffffffffffffffffffffff167fddf252ad1be2c89b69c2b068fc378daa952ba7f163c4a11628f55a4df523b3ef846040518082815260200191505060405180910390a360019050611a08565b611a058383612180565b90505b92915050565b600082600960003373ffffffffffffffffffffffffffffffffffffffff1673ffffffffffffffffffffffffffffffffffffffff16815260200190815260200160002060008673ffffffffffffffffffffffffffffffffffffffff1673ffffffffffffffffffffffffffffffffffffffff168152602001908152602001600020819055508373ffffffffffffffffffffffffffffffffffffffff163373ffffffffffffffffffffffffffffffffffffffff167f8c5be1e5ebec7d5bd14f71427d1e84f3dd0314c0f7b2291e5b200ac8c7c3b925856040518082815260200191505060405180910390a38373ffffffffffffffffffffffffffffffffffffffff16638f4ffcb1338530866040518563ffffffff167c0100000000000000000000000000000000000000000000000000000000028152600401808573ffffffffffffffffffffffffffffffffffffffff1673ffffffffffffffffffffffffffffffffffffffff1681526020018481526020018373ffffffffffffffffffffffffffffffffffffffff1673ffffffffffffffffffffffffffffffffffffffff16815260200180602001828103825283818151815260200191508051906020019080838360005b83811015611beb578082015181840152602081019050611bd0565b50505050905090810190601f168015611c185780820380516001836020036101000a031916815260200191505b5095505050505050600060405180830381600087803b158015611c3a57600080fd5b505af1158015611c4e573d6000803e3d6000fd5b50505050600190509392505050565b60008060009054906101000a900473ffffffffffffffffffffffffffffffffffffffff1673ffffffffffffffffffffffffffffffffffffffff163373ffffffffffffffffffffffffffffffffffffffff16141515611cba57600080fd5b600660019054906101000a900473ffffffffffffffffffffffffffffffffffffffff1673ffffffffffffffffffffffffffffffffffffffff168373ffffffffffffffffffffffffffffffffffffffff1614151515611d1757600080fd5b8273ffffffffffffffffffffffffffffffffffffffff1663a9059cbb6000809054906101000a900473ffffffffffffffffffffffffffffffffffffffff16846040518363ffffffff167c0100000000000000000000000000000000000000000000000000000000028152600401808373ffffffffffffffffffffffffffffffffffffffff1673ffffffffffffffffffffffffffffffffffffffff16815260200182815260200192505050602060405180830381600087803b158015611ddb57600080fd5b505af1158015611def573d6000803e3d6000fd5b505050506040513d6020811015611e0557600080fd5b8101908080519060200190929190505050905092915050565b6000600960008473ffffffffffffffffffffffffffffffffffffffff1673ffffffffffffffffffffffffffffffffffffffff16815260200190815260200160002060008373ffffffffffffffffffffffffffffffffffffffff1673ffffffffffffffffffffffffffffffffffffffff16815260200190815260200160002054905092915050565b600080611eb06117e2565b111515611ebc57600080fd5b611ec6338361236c565b9050919050565b7faa89e031a6f514af7ca74133f47031fe415865a81dfc652852bdf9def9dcaa5c3433604051808381526020018273ffffffffffffffffffffffffffffffffffffffff1673ffffffffffffffffffffffffffffffffffffffff168152602001806020018281038252600c8152602001807f45544820446f6e6174696f6e0000000000000000000000000000000000000000815250602001935050505060405180910390a1565b600080611f7f83611451565b9050600081118015611f9d5750600a54611f9b82600a54612147565b115b1515611fa557fe5b611fb1600a5482612147565b600a81905550612000600760008673ffffffffffffffffffffffffffffffffffffffff1673ffffffffffffffffffffffffffffffffffffffff1681526020019081526020016000205482612147565b600760008673ffffffffffffffffffffffffffffffffffffffff1673ffffffffffffffffffffffffffffffffffffffff168152602001908152602001600020819055508373ffffffffffffffffffffffffffffffffffffffff167f1cbc5ab135991bd2b6a4b034a04aa2aa086dac1371cb9b16b8b5e2ed6b036bed8483604051808381526020018281526020019250505060405180910390a28373ffffffffffffffffffffffffffffffffffffffff1660007fddf252ad1be2c89b69c2b068fc378daa952ba7f163c4a11628f55a4df523b3ef836040518082815260200191505060405180910390a38091505092915050565b60008060008414156121085760009150612127565b828402905082848281151561211957fe5b0414151561212357fe5b8091505b5092915050565b600082821115151561213c57fe5b818303905092915050565b600080828401905083811015151561215b57fe5b8091505092915050565b600080828481151561217357fe5b0490508091505092915050565b60008061218b6117e2565b11151561219757600080fd5b600760003373ffffffffffffffffffffffffffffffffffffffff1673ffffffffffffffffffffffffffffffffffffffff1681526020019081526020016000205482111515156121e557600080fd5b61222e600760003373ffffffffffffffffffffffffffffffffffffffff1673ffffffffffffffffffffffffffffffffffffffff168152602001908152602001600020548361212e565b600760003373ffffffffffffffffffffffffffffffffffffffff1673ffffffffffffffffffffffffffffffffffffffff168152602001908152602001600020819055506122ba600760008573ffffffffffffffffffffffffffffffffffffffff1673ffffffffffffffffffffffffffffffffffffffff1681526020019081526020016000205483612147565b600760008573ffffffffffffffffffffffffffffffffffffffff1673ffffffffffffffffffffffffffffffffffffffff168152602001908152602001600020819055508273ffffffffffffffffffffffffffffffffffffffff163373ffffffffffffffffffffffffffffffffffffffff167fddf252ad1be2c89b69c2b068fc378daa952ba7f163c4a11628f55a4df523b3ef846040518082815260200191505060405180910390a36001905092915050565b60008060008060008511151561238157600080fd5b600760008773ffffffffffffffffffffffffffffffffffffffff1673ffffffffffffffffffffffffffffffffffffffff1681526020019081526020016000205485111515156123cf57600080fd5b6123d885611257565b92506123e385610da3565b91506123ef838361212e565b90506123fd600a548661212e565b600a8190555061244c600760008873ffffffffffffffffffffffffffffffffffffffff1673ffffffffffffffffffffffffffffffffffffffff168152602001908152602001600020548661212e565b600760008873ffffffffffffffffffffffffffffffffffffffff1673ffffffffffffffffffffffffffffffffffffffff168152602001908152602001600020819055506000600660019054906101000a900473ffffffffffffffffffffffffffffffffffffffff1673ffffffffffffffffffffffffffffffffffffffff16141561251c578573ffffffffffffffffffffffffffffffffffffffff166108fc829081150290604051600060405180830381858888f19350505050158015612516573d6000803e3d6000fd5b5061261e565b600660019054906101000a900473ffffffffffffffffffffffffffffffffffffffff1673ffffffffffffffffffffffffffffffffffffffff1663a9059cbb87836040518363ffffffff167c0100000000000000000000000000000000000000000000000000000000028152600401808373ffffffffffffffffffffffffffffffffffffffff1673ffffffffffffffffffffffffffffffffffffffff16815260200182815260200192505050602060405180830381600087803b1580156125e157600080fd5b505af11580156125f5573d6000803e3d6000fd5b505050506040513d602081101561260b57600080fd5b8101908080519060200190929190505050505b8573ffffffffffffffffffffffffffffffffffffffff167fed7a144fad14804d5c249145e3e0e2b63a9eb455b76aee5bc92d711e9bba3e4a8683604051808381526020018281526020019250505060405180910390a26000821115612722577faa89e031a6f514af7ca74133f47031fe415865a81dfc652852bdf9def9dcaa5c8287604051808381526020018273ffffffffffffffffffffffffffffffffffffffff1673ffffffffffffffffffffffffffffffffffffffff168152602001806020018281038252600e8152602001807f53616c65206f6620746f6b656e73000000000000000000000000000000000000815250602001935050505060405180910390a15b809350505050929150505600a165627a7a72305820273941266324aea984552cb82bd7bc1ab8bc3d7dca6e3b73a884023215d443430029",
  "source": "pragma solidity ^0.4.24;\nimport \"./Owned.sol\";\nimport \"./ERC20.sol\";\nimport \"./SafeMath.sol\";\nimport \"./Percent.sol\";\n\n/*\n* Sensei Kevlar presents...\n*\n* ====================================================================*\n*                                             ,---.-,    \n*                                            '   ,'  '.  \n*  ,----..                                  /   /      \\ \n* /   /   \\                                .   ;  ,/.  : \n*|   :     :                ,---,   __  ,-.'   |  | :  ; \n*.   |  ;. /            ,-+-. /  |,' ,'/ /|'   |  ./   : \n*.   ; /--`     ,---.  ,--.'|'   |'  | |' ||   :       , \n*;   | ;  __   /     \\|   |  ,\"' ||  |   ,' \\   \\     /  \n*|   : |.' .' /    /  |   | /  | |'  :  /    ;   ,   '\\  \n*.   | '_.' :.    ' / |   | |  | ||  | '    /   /      \\ \n*'   ; : \\  |'   ;   /|   | |  |/ ;  : |   .   ;  ,/.  : \n*'   | '/  .''   |  / |   | |--'  |  , ;   '   |  | :  ; \n*|   :    /  |   :    |   |/       ---'    '   |  ./   : \n* \\   \\ .'    \\   \\  /'---'                |   :      /  \n*  `---`       `----'                       \\   \\   .'   \n*                                            `---`-'     \n* \n* =====================================================================*\n*\n*\n*/\n\ncontract Genr8 is Owned {\n    using SafeMath for uint256;\n    /*=================================\n    =            MODIFIERS            =\n    =================================*/\n    // only people with tokens\n    modifier onlyTokenHolders() {\n        require(myTokens() > 0);\n        _;\n    }\n    \n    modifier onlyPreLaunch() {\n        require(totalTokens() == 0 && counterBalance() == 0);\n        _;\n    }\n\n    modifier ethCounter() {\n        require(counter == 0x0);\n        _;\n    }\n\n    modifier erc20Counter(){\n        require(counter != 0x0);\n        _;\n    }\n    \n    /*==============================\n    =            EVENTS            =\n    ==============================*/\n    event Buy(\n        address indexed customerAddress,\n        uint256 incomingCounter,\n        uint256 tokensMinted\n    );\n    \n    event Sell(\n        address indexed customerAddress,\n        uint256 tokensBurned,\n        uint256 counterEarned\n    );\n\n    event Revenue(\n        uint256 amount,\n        address source,\n        string reason\n    );\n    \n    event Transfer(address indexed from, address indexed to, uint tokens);\n    event Approval(address indexed tokenOwner, address indexed spender, uint tokens);\n    \n    /*=====================================\n    =            CONFIGURABLES            =\n    =====================================*/\n    bytes32 public name = \"Genr8\";\n    bytes32 public symbol = \"GN8\";\n    uint256 public sellRevenuePercent = 10;\n    uint256 public percision = 100;\n    uint8 public decimals = 18;\n    address public counter = 0x0;\n    \n\n   /*================================\n    =            DATASETS            =\n    ================================*/\n    // amount of tokens for each address\n    mapping(address => uint256) internal tokenBalanceLedger;\n    // amount of eth withdrawn\n    mapping(address => int256) internal payoutsTo;\n    // amount of tokens allowed to someone else \n    mapping(address => mapping(address => uint)) allowed;\n    // the actual amount of tokens\n    uint256 internal tokenSupply = 0;\n    // the amount of dividends per token\n    uint256 internal profitPerShare;\n    \n    /*=======================================\n    =            PUBLIC FUNCTIONS            =\n    =======================================*/\n    /**\n    * -- APPLICATION ENTRY POINTS --  \n    */\n    constructor() \n    public {\n    }\n    \n    /**\n     * Allows the owner to change the name of the contract\n     */\n    function setName(bytes32 newName) onlyOwner public {\n        name = newName;\n        \n    }\n    \n    /**\n     * Allows the owner to change the symbol of the contract\n     */\n    function setSymbol(bytes32 newSymbol) onlyOwner public {\n        symbol = newSymbol;\n    }\n    \n    /**\n     * Allows the owner to change the decimals of the counter in case\n     * they want to support an ERC-20 token with less decimals than 18\n     * Only works prior to money being in the contract\n     */\n    function setDecimals(uint8 _decimals) onlyPreLaunch onlyOwner public {\n        decimals = _decimals;\n    }\n\n    /**\n     * Allows the owner to change the revenue cost on selling as a percent\n     * Only works prior to money being in the contract\n     */\n    function setSellRevenuePercent(uint256 _sellRevenuePercent, uint256 _percision) onlyPreLaunch onlyOwner public {\n        sellRevenuePercent = _sellRevenuePercent;\n        percision = _percision;\n    }\n    \n    /**\n     * Allows the owner to change the decimals of the counter in case\n     * they want to support an ERC-20 token with less decimals than 18\n     * Only works prior to there being money in the contract\n     */\n    function setCounter(address _counter) onlyPreLaunch onlyOwner public {\n        counter = _counter;\n    }\n    \n    /**\n     * Converts all incoming counter to tokens for the caller\n     */\n    function buy()\n        public\n        payable\n        ethCounter\n        returns(uint256)\n    {\n        if(msg.value > 0){\n            require(counter == 0x0);\n        }\n        return purchaseTokens(msg.sender, msg.value);\n    }\n    \n\n    /**\n     * Converts all incoming counter to tokens for the caller\n     */\n    function buyERC20(uint256 amount)\n        public\n        erc20Counter\n        returns(uint256)\n    {\n        require(ERC20Interface(counter).transferFrom(msg.sender, this, amount));\n        return purchaseTokens(msg.sender, amount);\n    }\n\n\n    /**\n     * Fallback function to handle counter that was sent straight to the contract.\n     * Causes tokens to be purchased.\n     */\n    function()\n        payable\n        public\n        ethCounter\n    {\n        emit Revenue(msg.value, msg.sender, \"ETH Deposit\");\n    }\n    \n    /**\n     * Create revenue without purchasing tokens\n     */\n    function donate() \n        payable\n        public\n    {\n        emit Revenue(msg.value, msg.sender, \"ETH Donation\");\n    }\n    \n    /**\n     * Liquifies tokens to counter.\n     */\n    function sell(uint256 amountOfTokens)\n        onlyTokenHolders\n        public\n        returns(uint256)\n    {\n        return sellTokens(msg.sender, amountOfTokens);\n    }\n\n    /**\n     * Transfer tokens from the caller to a new holder.\n     * Transfering ownership of tokens requires settling outstanding dividends\n     * and transfering them back. You can therefore send 0 tokens to this contract to\n     * trigger your withdraw.\n     */\n    function transfer(address toAddress, uint256 amountOfTokens)\n        onlyTokenHolders\n        public\n        returns(bool)\n    {\n\n       // Sell on transfer in instead of transfering to us\n        if(toAddress == address(this)){\n            // If we sent in tokens, destroy them and credit their account with ETH\n            if(amountOfTokens > 0){\n                sell(amountOfTokens);\n            }\n            // fire event\n            emit Transfer(msg.sender, 0x0, amountOfTokens);\n\n            return true;\n        }\n       \n        return _transfer(toAddress, amountOfTokens);\n    }\n\n    //ERC20\n    function _transfer(address toAddress, uint256 amountOfTokens)\n        internal\n        onlyTokenHolders\n        returns(bool)\n    {\n        // make sure we have the requested tokens\n        require(amountOfTokens <= tokenBalanceLedger[msg.sender]);\n       \n        // exchange tokens\n        tokenBalanceLedger[msg.sender] = SafeMath.sub(tokenBalanceLedger[msg.sender], amountOfTokens);\n        tokenBalanceLedger[toAddress] = SafeMath.add(tokenBalanceLedger[toAddress], amountOfTokens);\n        \n        // fire event\n        emit Transfer(msg.sender, toAddress, amountOfTokens);\n\n        return true;\n       \n    }\n    \n    // ERC20 \n    function approve(address spender, uint tokens) public returns (bool success) {\n        allowed[msg.sender][spender] = tokens;\n        emit Approval(msg.sender, spender, tokens);\n        return true;\n    }\n\n\n    /**\n    * Transfer `tokens` from the `from` account to the `to` account\n    * \n    * The calling account must already have sufficient tokens approve(...)-d\n    * for spending from the `from` account and\n    * - From account must have sufficient balance to transfer\n    * - Spender must have sufficient allowance to transfer\n    * - 0 value transfers are allowed\n    * \n    * Implementation taken from ERC20 reference\n    * \n    */\n    function transferFrom(address from, address to, uint tokens) onlyTokenHolders public returns (bool success) {\n        require(tokens > 0 && tokenBalanceLedger[from] <= tokens && tokens <= allowed[from][msg.sender]);\n        tokenBalanceLedger[from] = tokenBalanceLedger[from].sub(tokens);\n        allowed[from][msg.sender] = allowed[from][msg.sender].sub(tokens);\n        tokenBalanceLedger[to] = tokenBalanceLedger[to].add(tokens);\n        emit Transfer(from, to, tokens);\n        return true;\n    }\n\n    /**\n    * Returns the amount of tokens approved by the owner that can be\n    * transferred to the spender's account\n    * \n    * Implementation taken from ERC20 reference\n    * \n    */\n    function allowance(address tokenOwner, address spender) public constant returns (uint remaining) {\n        return allowed[tokenOwner][spender];\n    }\n\n    /**\n    * Token owner can approve for `spender` to transferFrom(...) `tokens`\n    * from the token owner's account. The `spender` contract function\n    * `receiveApproval(...)` is then executed\n    * \n    */\n    function approveAndCall(address spender, uint tokens, bytes data) public returns (bool success) {\n        allowed[msg.sender][spender] = tokens;\n        emit Approval(msg.sender, spender, tokens);\n        ApproveAndCallFallBack(spender).receiveApproval(msg.sender, tokens, this, data);\n        return true;\n    }\n    \n\n    /*----------  HELPERS AND CALCULATORS  ----------*/\n\n    \n    /**\n     * Method to view the current Counter stored in the contract\n     * Example: totalDestinationBalance()\n     */\n    function counterBalance()\n        public\n        view\n        returns(uint256)\n    {\n        if(counter == 0x0){\n            return address(this).balance;\n        } else {\n            return ERC20Interface(counter).balanceOf(this);\n        }\n    }\n    \n    /**\n     * Retrieve the name of the token.\n     */\n    function name() \n        public \n        view \n        returns(bytes32)\n    {\n        return name;\n    }\n     \n\n    /**\n     * Retrieve the symbol of the token.\n     */\n    function symbol() \n        public\n        view\n        returns(bytes32)\n    {\n        return symbol;\n    }\n    \n    /**\n     * Retrieve the decimals of the token.\n     */\n    function decimals() \n        public\n        view\n        returns(uint8)\n    {\n        return decimals;\n    }\n    \n    /**\n     * Retrieve the spread percent applied upon selling \n     */\n    function sellRevenuePercent() public view returns (uint256, uint256){\n        return (sellRevenuePercent, percision);\n    }\n     \n    /**\n     * Retrieve the total token supply.\n     */\n    function totalTokens()\n        public\n        view\n        returns(uint256)\n    {\n        return tokenSupply;\n    }\n    \n    /**\n     * Retrieve the tokens owned by the caller.\n     */\n    function myTokens()\n        public\n        view\n        returns(uint256)\n    {\n        return balanceOf(msg.sender);\n    }\n\n    \n    /**\n     * Retrieve the token balance of any single address.\n     */\n    function balanceOf(address customerAddress)\n        view\n        public\n        returns(uint256)\n    {\n        return tokenBalanceLedger[customerAddress];\n    }\n    \n    \n    /**\n     * Convert X tokens to Y counter\n     */\n    function tokensToCounter(uint256 anAmount) public view returns(uint256){\n        return SafeMath.div(SafeMath.mul(SafeMath.div(SafeMath.mul(totalTokens(), percision), counterBalance()), anAmount),percision);\n    }\n    \n    /**\n     * Convert X counter to Y tokens\n     */\n    function counterToTokens(uint256 anAmount) public view returns(uint256){\n        if(totalTokens() == 0){\n            return anAmount;\n        }\n        return SafeMath.mul(SafeMath.div(anAmount, SafeMath.div(SafeMath.mul(totalTokens(), percision), counterBalance())), percision);\n    }\n    \n    /**\n     * Calculate the cost of selling X tokens\n     */\n    function revenueCost(uint256 anAmount) public view returns(uint256){\n        return sellRevenuePercent > 0 ? SafeMath.mul(anAmount, sellRevenuePercent) / percision : 0;\n    }\n    \n    /*==========================================\n    =            INTERNAL FUNCTIONS            =\n    ==========================================*/\n    function purchaseTokens(address who, uint256 incomingCounter) internal returns(uint256) {\n        // book keeping\n        uint256 amountOfTokens = counterToTokens(incomingCounter);\n\n        // prevent overflow\n        assert(amountOfTokens > 0 && (SafeMath.add(amountOfTokens,tokenSupply) > tokenSupply));\n               \n        // add tokens to the pool\n        tokenSupply = SafeMath.add(tokenSupply, amountOfTokens);\n \n        // update circulating supply & the ledger address for the customer\n        tokenBalanceLedger[who] = SafeMath.add(tokenBalanceLedger[who], amountOfTokens);\n        \n        // fire events\n        emit Buy(who, incomingCounter, amountOfTokens);\n        emit Transfer(0x0, who, amountOfTokens);\n        return amountOfTokens;\n    }\n\n    function sellTokens(address who, uint256 anAmount) internal returns(uint256) {\n        require(anAmount > 0);\n        require(anAmount <= tokenBalanceLedger[who]);\n        uint256 counterAmount = tokensToCounter(anAmount);\n        uint256 revenue = revenueCost(anAmount);\n        uint256 taxedCounter = SafeMath.sub(counterAmount, revenue);\n        \n        // burn the sold tokens\n        tokenSupply = SafeMath.sub(tokenSupply, anAmount);\n        tokenBalanceLedger[who] = SafeMath.sub(tokenBalanceLedger[who], anAmount);\n        \n        //Send them their eth/counter\n        if(counter == 0x0){\n            who.transfer(taxedCounter);\n        }else{\n            ERC20Interface(counter).transfer(who, taxedCounter);\n        }\n        \n        // fire event\n        emit Sell(who, anAmount, taxedCounter);\n        if(revenue > 0){\n            emit Revenue(revenue, who, \"Sale of tokens\");\n        }\n        return taxedCounter;\n    }\n\n    /**\n    * Owner can transfer out any accidentally sent ERC20 tokens\n    * \n    * Implementation taken from ERC20 reference\n    * \n    */\n    function transferAnyERC20Token(address tokenAddress, uint tokens) public onlyOwner returns (bool success) {\n        require(tokenAddress != counter);\n        return ERC20Interface(tokenAddress).transfer(owner, tokens);\n    }\n}",
  "sourcePath": "C:\\Users\\evilg\\OneDrive\\Documents\\GitHub\\Genr8or\\contracts\\Genr8.sol",
  "compiler": {
    "name": "solc",
    "version": "0.4.24+commit.e67f0147.Emscripten.clang"
  },
  "schemaVersion": "2.0.1",
  "updatedAt": "2018-09-21T07:33:24.614Z"
}