{
  "contractName": "Timelord",
  "abi": [
    {
      "constant": true,
      "inputs": [],
      "name": "name",
      "outputs": [
        {
          "name": "",
          "type": "string"
        }
      ],
      "payable": false,
      "stateMutability": "view",
      "type": "function"
    },
    {
      "constant": true,
      "inputs": [],
      "name": "decimals",
      "outputs": [
        {
          "name": "",
          "type": "uint256"
        }
      ],
      "payable": false,
      "stateMutability": "view",
      "type": "function"
    },
    {
      "constant": true,
      "inputs": [],
      "name": "total_supply",
      "outputs": [
        {
          "name": "",
          "type": "uint256"
        }
      ],
      "payable": false,
      "stateMutability": "view",
      "type": "function"
    },
    {
      "constant": true,
      "inputs": [],
      "name": "ownerCandidate",
      "outputs": [
        {
          "name": "",
          "type": "address"
        }
      ],
      "payable": false,
      "stateMutability": "view",
      "type": "function"
    },
    {
      "constant": true,
      "inputs": [
        {
          "name": "",
          "type": "address"
        }
      ],
      "name": "payouts",
      "outputs": [
        {
          "name": "",
          "type": "int256"
        }
      ],
      "payable": false,
      "stateMutability": "view",
      "type": "function"
    },
    {
      "constant": false,
      "inputs": [],
      "name": "acceptOwnership",
      "outputs": [],
      "payable": false,
      "stateMutability": "nonpayable",
      "type": "function"
    },
    {
      "constant": true,
      "inputs": [],
      "name": "owner",
      "outputs": [
        {
          "name": "",
          "type": "address"
        }
      ],
      "payable": false,
      "stateMutability": "view",
      "type": "function"
    },
    {
      "constant": true,
      "inputs": [],
      "name": "symbol",
      "outputs": [
        {
          "name": "",
          "type": "string"
        }
      ],
      "payable": false,
      "stateMutability": "view",
      "type": "function"
    },
    {
      "constant": false,
      "inputs": [
        {
          "name": "_newOwner",
          "type": "address"
        }
      ],
      "name": "changeOwner",
      "outputs": [],
      "payable": false,
      "stateMutability": "nonpayable",
      "type": "function"
    },
    {
      "constant": true,
      "inputs": [],
      "name": "paid_out",
      "outputs": [
        {
          "name": "",
          "type": "uint256"
        }
      ],
      "payable": false,
      "stateMutability": "view",
      "type": "function"
    },
    {
      "constant": true,
      "inputs": [],
      "name": "payout_pool",
      "outputs": [
        {
          "name": "",
          "type": "uint256"
        }
      ],
      "payable": false,
      "stateMutability": "view",
      "type": "function"
    },
    {
      "constant": true,
      "inputs": [
        {
          "name": "",
          "type": "address"
        },
        {
          "name": "",
          "type": "address"
        }
      ],
      "name": "allowance",
      "outputs": [
        {
          "name": "",
          "type": "uint256"
        }
      ],
      "payable": false,
      "stateMutability": "view",
      "type": "function"
    },
    {
      "constant": true,
      "inputs": [
        {
          "name": "",
          "type": "address"
        }
      ],
      "name": "balance",
      "outputs": [
        {
          "name": "",
          "type": "uint256"
        }
      ],
      "payable": false,
      "stateMutability": "view",
      "type": "function"
    },
    {
      "payable": true,
      "stateMutability": "payable",
      "type": "fallback"
    },
    {
      "anonymous": false,
      "inputs": [
        {
          "indexed": false,
          "name": "amount",
          "type": "uint256"
        },
        {
          "indexed": false,
          "name": "total_supply",
          "type": "uint256"
        }
      ],
      "name": "TokensMinted",
      "type": "event"
    },
    {
      "anonymous": false,
      "inputs": [
        {
          "indexed": false,
          "name": "amount",
          "type": "uint256"
        },
        {
          "indexed": false,
          "name": "total_supply",
          "type": "uint256"
        }
      ],
      "name": "TokensBurned",
      "type": "event"
    },
    {
      "anonymous": false,
      "inputs": [
        {
          "indexed": false,
          "name": "user",
          "type": "address"
        }
      ],
      "name": "Reinvested",
      "type": "event"
    },
    {
      "anonymous": false,
      "inputs": [
        {
          "indexed": false,
          "name": "user",
          "type": "address"
        }
      ],
      "name": "Redeemed",
      "type": "event"
    },
    {
      "anonymous": false,
      "inputs": [
        {
          "indexed": false,
          "name": "amount",
          "type": "uint256"
        }
      ],
      "name": "Donation",
      "type": "event"
    },
    {
      "anonymous": false,
      "inputs": [
        {
          "indexed": false,
          "name": "from",
          "type": "address"
        },
        {
          "indexed": false,
          "name": "to",
          "type": "address"
        },
        {
          "indexed": false,
          "name": "value",
          "type": "uint256"
        }
      ],
      "name": "Transfer",
      "type": "event"
    },
    {
      "anonymous": false,
      "inputs": [
        {
          "indexed": false,
          "name": "from",
          "type": "address"
        },
        {
          "indexed": false,
          "name": "spender",
          "type": "address"
        },
        {
          "indexed": false,
          "name": "value",
          "type": "uint256"
        }
      ],
      "name": "Approval",
      "type": "event"
    },
    {
      "constant": false,
      "inputs": [],
      "name": "buyTokens",
      "outputs": [],
      "payable": true,
      "stateMutability": "payable",
      "type": "function"
    },
    {
      "constant": false,
      "inputs": [],
      "name": "reinvest",
      "outputs": [],
      "payable": false,
      "stateMutability": "nonpayable",
      "type": "function"
    },
    {
      "constant": false,
      "inputs": [],
      "name": "redeem",
      "outputs": [],
      "payable": false,
      "stateMutability": "nonpayable",
      "type": "function"
    },
    {
      "constant": false,
      "inputs": [],
      "name": "takeProfit",
      "outputs": [],
      "payable": false,
      "stateMutability": "nonpayable",
      "type": "function"
    },
    {
      "constant": false,
      "inputs": [],
      "name": "donate",
      "outputs": [],
      "payable": true,
      "stateMutability": "payable",
      "type": "function"
    },
    {
      "constant": false,
      "inputs": [],
      "name": "payout",
      "outputs": [],
      "payable": false,
      "stateMutability": "nonpayable",
      "type": "function"
    },
    {
      "constant": true,
      "inputs": [],
      "name": "myDividends",
      "outputs": [
        {
          "name": "",
          "type": "uint256"
        }
      ],
      "payable": false,
      "stateMutability": "view",
      "type": "function"
    },
    {
      "constant": true,
      "inputs": [
        {
          "name": "user_address",
          "type": "address"
        }
      ],
      "name": "dividendsOf",
      "outputs": [
        {
          "name": "",
          "type": "uint256"
        }
      ],
      "payable": false,
      "stateMutability": "view",
      "type": "function"
    },
    {
      "constant": true,
      "inputs": [],
      "name": "myBalance",
      "outputs": [
        {
          "name": "",
          "type": "uint256"
        }
      ],
      "payable": false,
      "stateMutability": "view",
      "type": "function"
    },
    {
      "constant": true,
      "inputs": [
        {
          "name": "_token_holder",
          "type": "address"
        }
      ],
      "name": "balanceOf",
      "outputs": [
        {
          "name": "user_balance",
          "type": "uint256"
        }
      ],
      "payable": false,
      "stateMutability": "view",
      "type": "function"
    },
    {
      "constant": false,
      "inputs": [
        {
          "name": "_to",
          "type": "address"
        },
        {
          "name": "_value",
          "type": "uint256"
        }
      ],
      "name": "transfer",
      "outputs": [
        {
          "name": "success",
          "type": "bool"
        }
      ],
      "payable": false,
      "stateMutability": "nonpayable",
      "type": "function"
    },
    {
      "constant": false,
      "inputs": [
        {
          "name": "_from",
          "type": "address"
        },
        {
          "name": "_to",
          "type": "address"
        },
        {
          "name": "_value",
          "type": "uint256"
        }
      ],
      "name": "transferFrom",
      "outputs": [
        {
          "name": "success",
          "type": "bool"
        }
      ],
      "payable": false,
      "stateMutability": "nonpayable",
      "type": "function"
    },
    {
      "constant": false,
      "inputs": [
        {
          "name": "_spender",
          "type": "address"
        },
        {
          "name": "_value",
          "type": "uint256"
        }
      ],
      "name": "approve",
      "outputs": [
        {
          "name": "success",
          "type": "bool"
        }
      ],
      "payable": false,
      "stateMutability": "nonpayable",
      "type": "function"
    }
  ],
  "bytecode": "0x60806040526040805190810160405280600f81526020017f50726f6f66206f6620446f75626c650000000000000000000000000000000000815250600290805190602001906200005192919062000190565b506040805190810160405280600381526020017f504f440000000000000000000000000000000000000000000000000000000000815250600390805190602001906200009f92919062000190565b507380339db00737f200b9c91e391acc5099b9d81e9e600460006101000a81548173ffffffffffffffffffffffffffffffffffffffff021916908373ffffffffffffffffffffffffffffffffffffffff160217905550738ef3176de6a5e42c243d356dbb8bcc6e72f3dc6c600560006101000a81548173ffffffffffffffffffffffffffffffffffffffff021916908373ffffffffffffffffffffffffffffffffffffffff160217905550336000806101000a81548173ffffffffffffffffffffffffffffffffffffffff021916908373ffffffffffffffffffffffffffffffffffffffff1602179055506200023f565b828054600181600116156101000203166002900490600052602060002090601f016020900481019282601f10620001d357805160ff191683800117855562000204565b8280016001018555821562000204579182015b8281111562000203578251825591602001919060010190620001e6565b5b50905062000213919062000217565b5090565b6200023c91905b80821115620002385760008160009055506001016200021e565b5090565b90565b611ea9806200024f6000396000f300608060405260043610610153576000357c0100000000000000000000000000000000000000000000000000000000900463ffffffff16806265318b146101ed57806306fdde0314610244578063095ea7b3146102d457806323b872dd14610339578063313ce567146103be5780633151ecfc146103e95780633940e9ee146104145780635f504a821461043f57806363bd1d4a1461049657806365bcfbe7146104ad57806370a082311461050457806370c105781461055b57806379ba5097146105725780638da5cb5b1461058957806395d89b41146105e0578063a6f9dae114610670578063a9059cbb146106b3578063b734d8fb14610718578063bdf6a5ce14610743578063be040fb01461076e578063c9116b6914610785578063d0febe4c146107b0578063dd62ed3e146107ba578063e3d670d714610831578063ed88c68e14610888578063fdb5a03e14610892575b7380339db00737f200b9c91e391acc5099b9d81e9e73ffffffffffffffffffffffffffffffffffffffff163373ffffffffffffffffffffffffffffffffffffffff1614806101e05750738ef3176de6a5e42c243d356dbb8bcc6e72f3dc6c73ffffffffffffffffffffffffffffffffffffffff163373ffffffffffffffffffffffffffffffffffffffff16145b15156101eb57600080fd5b005b3480156101f957600080fd5b5061022e600480360381019080803573ffffffffffffffffffffffffffffffffffffffff1690602001909291905050506108a9565b6040518082815260200191505060405180910390f35b34801561025057600080fd5b5061025961094b565b6040518080602001828103825283818151815260200191508051906020019080838360005b8381101561029957808201518184015260208101905061027e565b50505050905090810190601f1680156102c65780820380516001836020036101000a031916815260200191505b509250505060405180910390f35b3480156102e057600080fd5b5061031f600480360381019080803573ffffffffffffffffffffffffffffffffffffffff169060200190929190803590602001909291905050506109e9565b604051808215151515815260200191505060405180910390f35b34801561034557600080fd5b506103a4600480360381019080803573ffffffffffffffffffffffffffffffffffffffff169060200190929190803573ffffffffffffffffffffffffffffffffffffffff16906020019092919080359060200190929190505050610baa565b604051808215151515815260200191505060405180910390f35b3480156103ca57600080fd5b506103d3610fad565b6040518082815260200191505060405180910390f35b3480156103f557600080fd5b506103fe610fb2565b6040518082815260200191505060405180910390f35b34801561042057600080fd5b50610429610fc2565b6040518082815260200191505060405180910390f35b34801561044b57600080fd5b50610454610fc8565b604051808273ffffffffffffffffffffffffffffffffffffffff1673ffffffffffffffffffffffffffffffffffffffff16815260200191505060405180910390f35b3480156104a257600080fd5b506104ab610fee565b005b3480156104b957600080fd5b506104ee600480360381019080803573ffffffffffffffffffffffffffffffffffffffff169060200190929190505050611062565b6040518082815260200191505060405180910390f35b34801561051057600080fd5b50610545600480360381019080803573ffffffffffffffffffffffffffffffffffffffff16906020019092919050505061107a565b6040518082815260200191505060405180910390f35b34801561056757600080fd5b506105706110c3565b005b34801561057e57600080fd5b506105876110d6565b005b34801561059557600080fd5b5061059e611196565b604051808273ffffffffffffffffffffffffffffffffffffffff1673ffffffffffffffffffffffffffffffffffffffff16815260200191505060405180910390f35b3480156105ec57600080fd5b506105f56111bb565b6040518080602001828103825283818151815260200191508051906020019080838360005b8381101561063557808201518184015260208101905061061a565b50505050905090810190601f1680156106625780820380516001836020036101000a031916815260200191505b509250505060405180910390f35b34801561067c57600080fd5b506106b1600480360381019080803573ffffffffffffffffffffffffffffffffffffffff169060200190929190505050611259565b005b3480156106bf57600080fd5b506106fe600480360381019080803573ffffffffffffffffffffffffffffffffffffffff169060200190929190803590602001909291905050506112f8565b604051808215151515815260200191505060405180910390f35b34801561072457600080fd5b5061072d6115e4565b6040518082815260200191505060405180910390f35b34801561074f57600080fd5b506107586115ea565b6040518082815260200191505060405180910390f35b34801561077a57600080fd5b506107836115f0565b005b34801561079157600080fd5b5061079a611666565b6040518082815260200191505060405180910390f35b6107b86116ad565b005b3480156107c657600080fd5b5061081b600480360381019080803573ffffffffffffffffffffffffffffffffffffffff169060200190929190803573ffffffffffffffffffffffffffffffffffffffff1690602001909291905050506116d0565b6040518082815260200191505060405180910390f35b34801561083d57600080fd5b50610872600480360381019080803573ffffffffffffffffffffffffffffffffffffffff1690602001909291905050506116f5565b6040518082815260200191505060405180910390f35b61089061170d565b005b34801561089e57600080fd5b506108a761175d565b005b600068010000000000000000600b60008473ffffffffffffffffffffffffffffffffffffffff1673ffffffffffffffffffffffffffffffffffffffff16815260200190815260200160002054600a60008573ffffffffffffffffffffffffffffffffffffffff1673ffffffffffffffffffffffffffffffffffffffff16815260200190815260200160002054600954020381151561094357fe5b049050919050565b60028054600181600116156101000203166002900480601f0160208091040260200160405190810160405280929190818152602001828054600181600116156101000203166002900480156109e15780601f106109b6576101008083540402835291602001916109e1565b820191906000526020600020905b8154815290600101906020018083116109c457829003601f168201915b505050505081565b600080821480610a7557506000600c60003373ffffffffffffffffffffffffffffffffffffffff1673ffffffffffffffffffffffffffffffffffffffff16815260200190815260200160002060008573ffffffffffffffffffffffffffffffffffffffff1673ffffffffffffffffffffffffffffffffffffffff16815260200190815260200160002054145b1515610a8057600080fd5b81600c60003373ffffffffffffffffffffffffffffffffffffffff1673ffffffffffffffffffffffffffffffffffffffff16815260200190815260200160002060008573ffffffffffffffffffffffffffffffffffffffff1673ffffffffffffffffffffffffffffffffffffffff168152602001908152602001600020819055507f8c5be1e5ebec7d5bd14f71427d1e84f3dd0314c0f7b2291e5b200ac8c7c3b925338484604051808473ffffffffffffffffffffffffffffffffffffffff1673ffffffffffffffffffffffffffffffffffffffff1681526020018373ffffffffffffffffffffffffffffffffffffffff1673ffffffffffffffffffffffffffffffffffffffff168152602001828152602001935050505060405180910390a16001905092915050565b60008082111515610bba57600080fd5b81600a60008673ffffffffffffffffffffffffffffffffffffffff1673ffffffffffffffffffffffffffffffffffffffff1681526020019081526020016000205410151515610c0857600080fd5b600a60008473ffffffffffffffffffffffffffffffffffffffff1673ffffffffffffffffffffffffffffffffffffffff1681526020019081526020016000205482600a60008673ffffffffffffffffffffffffffffffffffffffff1673ffffffffffffffffffffffffffffffffffffffff168152602001908152602001600020540110151515610c9757600080fd5b81600c60008673ffffffffffffffffffffffffffffffffffffffff1673ffffffffffffffffffffffffffffffffffffffff16815260200190815260200160002060003373ffffffffffffffffffffffffffffffffffffffff1673ffffffffffffffffffffffffffffffffffffffff1681526020019081526020016000205410151515610d2257600080fd5b6000610d2d856108a9565b1115610d3d57610d3c84611770565b5b6009548202600b60008673ffffffffffffffffffffffffffffffffffffffff1673ffffffffffffffffffffffffffffffffffffffff168152602001908152602001600020600082825403925050819055506009548202600b60008573ffffffffffffffffffffffffffffffffffffffff1673ffffffffffffffffffffffffffffffffffffffff1681526020019081526020016000206000828254019250508190555081600a60008573ffffffffffffffffffffffffffffffffffffffff1673ffffffffffffffffffffffffffffffffffffffff1681526020019081526020016000206000828254019250508190555081600a60008673ffffffffffffffffffffffffffffffffffffffff1673ffffffffffffffffffffffffffffffffffffffff1681526020019081526020016000206000828254039250508190555081600c60008673ffffffffffffffffffffffffffffffffffffffff1673ffffffffffffffffffffffffffffffffffffffff16815260200190815260200160002060003373ffffffffffffffffffffffffffffffffffffffff1673ffffffffffffffffffffffffffffffffffffffff168152602001908152602001600020600082825403925050819055507fddf252ad1be2c89b69c2b068fc378daa952ba7f163c4a11628f55a4df523b3ef848484604051808473ffffffffffffffffffffffffffffffffffffffff1673ffffffffffffffffffffffffffffffffffffffff1681526020018373ffffffffffffffffffffffffffffffffffffffff1673ffffffffffffffffffffffffffffffffffffffff168152602001828152602001935050505060405180910390a1600190509392505050565b601281565b6000610fbd336108a9565b905090565b60065481565b600160009054906101000a900473ffffffffffffffffffffffffffffffffffffffff1681565b6000610ff8611894565b61101b3073ffffffffffffffffffffffffffffffffffffffff1631600754611a13565b9050600081111561105f578060076000828254019250508190555060065468010000000000000000820281151561104e57fe5b046009600082825401925050819055505b50565b600b6020528060005260406000206000915090505481565b6000600a60008373ffffffffffffffffffffffffffffffffffffffff1673ffffffffffffffffffffffffffffffffffffffff168152602001908152602001600020549050919050565b6110cc33611a2c565b6110d4610fee565b565b600160009054906101000a900473ffffffffffffffffffffffffffffffffffffffff1673ffffffffffffffffffffffffffffffffffffffff163373ffffffffffffffffffffffffffffffffffffffff1614151561113257600080fd5b600160009054906101000a900473ffffffffffffffffffffffffffffffffffffffff166000806101000a81548173ffffffffffffffffffffffffffffffffffffffff021916908373ffffffffffffffffffffffffffffffffffffffff160217905550565b6000809054906101000a900473ffffffffffffffffffffffffffffffffffffffff1681565b60038054600181600116156101000203166002900480601f0160208091040260200160405190810160405280929190818152602001828054600181600116156101000203166002900480156112515780601f1061122657610100808354040283529160200191611251565b820191906000526020600020905b81548152906001019060200180831161123457829003601f168201915b505050505081565b6000809054906101000a900473ffffffffffffffffffffffffffffffffffffffff1673ffffffffffffffffffffffffffffffffffffffff163373ffffffffffffffffffffffffffffffffffffffff161415156112b457600080fd5b80600160006101000a81548173ffffffffffffffffffffffffffffffffffffffff021916908373ffffffffffffffffffffffffffffffffffffffff16021790555050565b6000808211151561130857600080fd5b81600a60003373ffffffffffffffffffffffffffffffffffffffff1673ffffffffffffffffffffffffffffffffffffffff168152602001908152602001600020541015151561135657600080fd5b600a60008473ffffffffffffffffffffffffffffffffffffffff1673ffffffffffffffffffffffffffffffffffffffff1681526020019081526020016000205482600a60008673ffffffffffffffffffffffffffffffffffffffff1673ffffffffffffffffffffffffffffffffffffffff1681526020019081526020016000205401101515156113e557600080fd5b60006113ef610fb2565b11156113ff576113fe33611770565b5b6009548202600b60003373ffffffffffffffffffffffffffffffffffffffff1673ffffffffffffffffffffffffffffffffffffffff168152602001908152602001600020600082825403925050819055506009548202600b60008573ffffffffffffffffffffffffffffffffffffffff1673ffffffffffffffffffffffffffffffffffffffff1681526020019081526020016000206000828254019250508190555081600a60003373ffffffffffffffffffffffffffffffffffffffff1673ffffffffffffffffffffffffffffffffffffffff1681526020019081526020016000206000828254039250508190555081600a60008573ffffffffffffffffffffffffffffffffffffffff1673ffffffffffffffffffffffffffffffffffffffff168152602001908152602001600020600082825401925050819055507fddf252ad1be2c89b69c2b068fc378daa952ba7f163c4a11628f55a4df523b3ef338484604051808473ffffffffffffffffffffffffffffffffffffffff1673ffffffffffffffffffffffffffffffffffffffff1681526020018373ffffffffffffffffffffffffffffffffffffffff1673ffffffffffffffffffffffffffffffffffffffff168152602001828152602001935050505060405180910390a16001905092915050565b60085481565b60075481565b6115f933611b2f565b7fcb7d87f76b4d6501ac27ed560664bf84ce273a2ddd7b9b1da63c753e68ccae2033604051808273ffffffffffffffffffffffffffffffffffffffff1673ffffffffffffffffffffffffffffffffffffffff16815260200191505060405180910390a1611664610fee565b565b6000600a60003373ffffffffffffffffffffffffffffffffffffffff1673ffffffffffffffffffffffffffffffffffffffff16815260200190815260200160002054905090565b6064341115156116bc57600080fd5b6116c63433611cc1565b6116ce610fee565b565b600c602052816000526040600020602052806000526040600020600091509150505481565b600a6020528060005260406000206000915090505481565b60003411151561171c57600080fd5b611724610fee565b7f4ad6d3cd6f9acbf734536f9812be14aded33cc8c4ae2cfbf3ff9a0a4acb33748346040518082815260200191505060405180910390a1565b61176633611770565b61176e610fee565b565b600061177b826108a9565b905060008111151561178c57600080fd5b6117968183611cc1565b80600760008282540392505081905550600954600a60008473ffffffffffffffffffffffffffffffffffffffff1673ffffffffffffffffffffffffffffffffffffffff1681526020019081526020016000205402600b60008473ffffffffffffffffffffffffffffffffffffffff1673ffffffffffffffffffffffffffffffffffffffff168152602001908152602001600020819055507fe92267cada420eb578d70f64d0cddaa043905d3323a37cbfd754b9da4bc5737282604051808273ffffffffffffffffffffffffffffffffffffffff1673ffffffffffffffffffffffffffffffffffffffff16815260200191505060405180910390a15050565b6000600560009054906101000a900473ffffffffffffffffffffffffffffffffffffffff1673ffffffffffffffffffffffffffffffffffffffff1663688abbf760016040518263ffffffff167c01000000000000000000000000000000000000000000000000000000000281526004018082151515158152602001915050602060405180830381600087803b15801561192c57600080fd5b505af1158015611940573d6000803e3d6000fd5b505050506040513d602081101561195657600080fd5b81019080805190602001909291905050501115611a1157600560009054906101000a900473ffffffffffffffffffffffffffffffffffffffff1673ffffffffffffffffffffffffffffffffffffffff16633ccfd60b620f42406040518263ffffffff167c0100000000000000000000000000000000000000000000000000000000028152600401600060405180830381600088803b1580156119f757600080fd5b5087f1158015611a0b573d6000803e3d6000fd5b50505050505b565b6000828211151515611a2157fe5b818303905092915050565b600080611a38836108a9565b9150600082111515611a4957600080fd5b600954600a60008573ffffffffffffffffffffffffffffffffffffffff1673ffffffffffffffffffffffffffffffffffffffff1681526020019081526020016000205402600b60008573ffffffffffffffffffffffffffffffffffffffff1673ffffffffffffffffffffffffffffffffffffffff16815260200190815260200160002081905550611adb826002611e62565b9050806007600082825403925050819055508273ffffffffffffffffffffffffffffffffffffffff1681620f424090604051600060405180830381858888f193505050501515611b2a57600080fd5b505050565b6000611b3a826108a9565b9050600081111515611b4b57600080fd5b80600a60008473ffffffffffffffffffffffffffffffffffffffff1673ffffffffffffffffffffffffffffffffffffffff168152602001908152602001600020600082825403925050819055508060066000828254039250508190555080600760008282540392505081905550600954600a60008473ffffffffffffffffffffffffffffffffffffffff1673ffffffffffffffffffffffffffffffffffffffff1681526020019081526020016000205402600b60008473ffffffffffffffffffffffffffffffffffffffff1673ffffffffffffffffffffffffffffffffffffffff168152602001908152602001600020819055508173ffffffffffffffffffffffffffffffffffffffff1681620f424090604051600060405180830381858888f193505050501515611c7c57600080fd5b7f8bc81353cf6671d259d22783e39ed930583c86f3f4cf7e981298e6a872dfb15d81600654604051808381526020018281526020019250505060405180910390a15050565b6000600460009054906101000a900473ffffffffffffffffffffffffffffffffffffffff1673ffffffffffffffffffffffffffffffffffffffff1663d0e30db084620f4240906040518363ffffffff167c01000000000000000000000000000000000000000000000000000000000281526004016000604051808303818589803b158015611d4e57600080fd5b5088f1158015611d62573d6000803e3d6000fd5b50505050505060028302905080600a60008473ffffffffffffffffffffffffffffffffffffffff1673ffffffffffffffffffffffffffffffffffffffff168152602001908152602001600020600082825401925050819055506009548102600b60008473ffffffffffffffffffffffffffffffffffffffff1673ffffffffffffffffffffffffffffffffffffffff16815260200190815260200160002060008282540192505081905550806006600082825401925050819055507fc61c8e2899bd86923bda7268d6d1b42d8e644ff3dedc13d41d5b798e4aa3523781600654604051808381526020018281526020019250505060405180910390a1505050565b6000808284811515611e7057fe5b04905080915050929150505600a165627a7a7230582045f33fbadbcde13ca3957660d05f78e01edc390f9707bafd23e9b95205cfc09b0029",
  "source": "pragma solidity ^0.4.24;\n\n/* ================================================================================================ *\n * ================================================================================================ *\n * ================================================================================================ *\n *                                                                                                  *\n *            __            __    __         _                                       __             *\n *        ___/ /___  __ __ / /   / /____    (_)___    ___   ____ ___  ___ ___  ___  / /_ ___        *\n *       / _  // _ \\/ // // _ \\ / // __/_  / // _ \\  / _ \\ / __// -_)(_-</ -_)/ _ \\/ __/(_-<        *\n *       \\_,_/ \\___/\\_,_//_.__//_//_/  (_)/_/ \\___/ / .__//_/   \\__//___/\\__//_//_/\\__//___/        *\n *                                                 /_/                                              *\n *                                                                                                  *\n *                                                                                                  *\n *                                                                                                  *\n *                      _____                   _    _                 _                            *\n *                     |_   _|                 | |  | |               | |                           *\n *                       | |  _ __ ___  _ __   | |__| | __ _ _ __   __| |___                        *\n *                       | | | '__/ _ \\| '_ \\  |  __  |/ _` | '_ \\ / _` / __|                       *\n *                      _| |_| | | (_) | | | | | |  | | (_| | | | | (_| \\__ \\                       *\n *                     |_____|_|  \\___/|_| |_| |_|  |_|\\__,_|_| |_|\\__,_|___/                       *\n *                                                                                                  *\n *                                                                                                  *\n *   ::::::::::: ::::::::::: ::::     :::: :::::::::: :::        ::::::::  :::::::::  :::::::::     *\n *       :+:         :+:     +:+:+: :+:+:+ :+:        :+:       :+:    :+: :+:    :+: :+:    :+:    *\n *       +:+         +:+     +:+ +:+:+ +:+ +:+        +:+       +:+    +:+ +:+    +:+ +:+    +:+    *\n *       +#+         +#+     +#+  +:+  +#+ +#++:++#   +#+       +#+    +:+ +#++:++#:  +#+    +:+    *\n *       +#+         +#+     +#+       +#+ +#+        +#+       +#+    +#+ +#+    +#+ +#+    +#+    *\n *       #+#         #+#     #+#       #+# #+#        #+#       #+#    #+# #+#    #+# #+#    #+#    *\n *       ###     ########### ###       ### ########## ########## ########  ###    ### #########     *\n *                                                                                                  *\n *                                                                                                  *\n *                                         _n____n__                                                *\n *                                        /         \\---||--<                                       *\n *                                       /___________\\                                              *\n *                                       _|____|____|_                                              *\n *                                       _|____|____|_                                              *\n *                                        |    |    |                                               *\n *                                       --------------                                             *\n *                                       | || || || ||\\                                             *\n *                                       | || || || || \\++++++++------<                             *\n *                                       ===============                                            *\n *                                       |   |  |  |   |                                            *\n *                                      (| O | O| O| O |)                                           *\n *                                      |   |   |   |   |                                           *\n *                                     (| O | O | O |  O |)                                         *\n *                                      |   |   |    |    |                                         *\n *                                    (| O |  O |  O  | O  |)                                       *\n *                                     |   |    |     |    |                                        *\n *                                    (| O |  O  |   O |  O |)                                      *\n *                                   /========================\\                                     *\n *                                   \\vvvvvvvvvvvvvvvvvvvvvvvv/                                     *\n *                                                                                                  *\n * ================================================================================================ *\n * ================================================================================================ *\n * ================================================================================================ *\n \n\n ----------------------------------------- < How it Works > -----------------------------------------\n \nThis contract is an ERC-20 token that represents positions in the Doublr line. POD tokens are sold \nfor 0.5 ETH, and are redeemable for 1 ETH each. POD tokens become redeemable as ETH flows in from the \nDoublr contract (0xE58b65d1c0C8e8b2a0e3A3AcEC633271531084ED).\n\nThis functions similarly to the dividend system in POWH3D, with the twist that the tokens are\nburned once they are redeemed. This enforces a maximum 2x profit, and ensures that the positive sum \nnature of the Doublr contract is maintained.\n\nTESTING >>>\n\nbuyTokens() is the primary entry point. You will receive POD tokens at the price of 0.5 ETH/POD.\nThe ERC-20 interface still needs tested, as well as making sure the dividend tracker is working correctly.\n\n */\n\ncontract Owned {\n    \n    address public owner;\n    address public ownerCandidate;\n\n    constructor() public {\n        owner = msg.sender;\n    }\n\n    modifier onlyOwner {\n        require(msg.sender == owner);\n        _;\n    }\n    \n    function changeOwner(address _newOwner) public onlyOwner {\n        ownerCandidate = _newOwner;\n    }\n    \n    function acceptOwnership() public {\n        require(msg.sender == ownerCandidate);  \n        owner = ownerCandidate;\n    }\n    \n}\n\ncontract Timelord is Owned {\n    \n    string public name = \"Proof of Double\"; \n    string public symbol = \"POD\";           \n    uint256 constant public decimals = 18;\n    \n    // CONSTANTS\n    \n    address constant iron_hands_address = address(0x80339DB00737f200b9C91e391aCc5099b9d81e9e); // ROPSTEN\n    address constant weak_hands_address = address(0x8Ef3176DE6a5e42C243d356Dbb8bcc6E72f3dC6C); // ROPSTEN\n    \n    IH iron_hands = IH(iron_hands_address);\n    POWH weak_hands = POWH(weak_hands_address);\n    \n    uint256 constant internal magnitude = 2**64;\n    \n    // EVENTS\n    \n    event TokensMinted(uint256 amount, uint256 total_supply);\n    event TokensBurned(uint256 amount, uint256 total_supply);\n    event Reinvested(address user);\n    event Redeemed(address user);\n    event Donation(uint256 amount);\n    event Transfer(address from, address to, uint256 value);\n    event Approval(address from, address spender, uint256 value);\n    \n    // VARIABLES\n\n    uint256 public total_supply;\n    uint256 public payout_pool; // How much ETH is awaiting redemption or reinvestment\n    uint256 public paid_out; // How much total ETH has been paid out to users.\n    uint256 internal profit_per_token;\n\n    // MAPPINGS\n    \n    mapping (address => uint256) public balance;\n    mapping (address => int256) public payouts;\n    mapping (address => mapping (address => uint256)) public allowance;\n\n    // PUBLIC FUNCTIONS\n    \n    function buyTokens() payable public {\n        \n        require(msg.value > 100);\n        \n        mintTokens(msg.value, msg.sender);\n        \n        payout();\n        \n    }\n    \n    function reinvest() public {\n        \n        reinvestTokens(msg.sender);\n        \n        payout();\n        \n    }\n    \n    function redeem() public {\n        \n        burnTokens(msg.sender);\n        \n        emit Redeemed(msg.sender);\n        \n        payout();\n        \n    }\n    \n    function takeProfit() public {\n        \n        profit(msg.sender);\n        \n        payout();\n        \n    }\n    \n    function donate() payable public {\n        \n        require(msg.value > 0);\n        \n        payout();\n        \n        emit Donation(msg.value);\n        \n    }\n    \n    function() payable public {\n        require(msg.sender == iron_hands_address || msg.sender == weak_hands_address);\n    }\n    \n    function payout() public {\n        \n        withdrawPowhDivs();\n        \n        uint256 amount = SafeMath.sub(address(this).balance, payout_pool);\n        \n        if (amount > 0) {\n            \n            payout_pool += amount;\n            \n            profit_per_token += ((amount * magnitude) / total_supply);\n            \n        }\n        \n    }\n\n    // PRIVATE FUNCTIONS\n    \n    function mintTokens(uint256 incoming_eth, address user) private {\n        \n        iron_hands.deposit.value(incoming_eth).gas(1000000)();\n        \n        uint256 num_tokens = incoming_eth * 2;\n        \n        balance[user] += num_tokens;\n        payouts[user] += (int256)(num_tokens * profit_per_token);\n        \n        total_supply += num_tokens;\n        \n        emit TokensMinted(num_tokens, total_supply);\n        \n    }\n    \n    function burnTokens(address user) private {\n        \n        uint256 owed = dividendsOf(user);\n        \n        require(owed > 0);\n        \n        balance[user] -= owed;\n        total_supply -= owed;\n        \n        payout_pool -= owed;\n        \n        payouts[user] = (int256)(balance[user] * profit_per_token);\n        \n        if (!user.call.value(owed).gas(1000000)()){\n            revert();\n        }\n        \n        emit TokensBurned(owed, total_supply);\n        \n    }\n    \n    function profit(address user) private {\n        \n        uint256 owed = dividendsOf(user);\n        \n        require(owed > 0);\n        \n        payouts[user] = (int256)(balance[user] * profit_per_token);\n        \n        uint256 half_owed = SafeMath.div(owed, 2);\n        \n        payout_pool -= half_owed;\n        \n        if (!user.call.value(half_owed).gas(1000000)()){\n            revert();\n        }\n        \n    }\n    \n    function reinvestTokens(address user) private {\n        uint256 owed = dividendsOf(user);\n        require(owed > 0);\n        mintTokens(owed, user);\n        payout_pool -= owed;\n        payouts[user] = (int256)(balance[user] * profit_per_token);\n        emit Reinvested(user);\n        \n    }\n    \n    function withdrawPowhDivs() private {\n        \n        if (weak_hands.myDividends(true) > 0) {\n            weak_hands.withdraw.gas(1000000)();\n        }\n        \n    }\n    \n    // VIEW FUNCTIONS\n   \n    function myDividends() public view returns (uint256) {\n        return dividendsOf(msg.sender);\n    }\n    \n    function dividendsOf(address user_address) public view returns (uint256) {\n        return (uint256) ((int256)(profit_per_token * balance[user_address]) - payouts[user_address]) / magnitude;\n    }\n    \n    function myBalance() public view returns (uint256) {\n        return balance[msg.sender];\n    }\n    \n    // ERC-20\n    \n    function balanceOf(address _token_holder) public view returns (uint256 user_balance) {\n        return balance[_token_holder];\n    }\n    \n    function transfer(address _to, uint256 _value) public returns (bool success) {\n        \n        require(_value > 0);\n        require(balance[msg.sender] >= _value);\n        require(balance[_to] + _value >= balance[_to]);\n        \n        if (myDividends() > 0) reinvestTokens(msg.sender);\n        \n        payouts[msg.sender] -= (int256)(_value * profit_per_token);\n        payouts[_to] += (int256)(_value * profit_per_token);\n        \n        balance[msg.sender] -= _value;\n        balance[_to] += _value;\n        \n        emit Transfer(msg.sender, _to, _value);\n        \n        return true;\n        \n    }\n\n    function transferFrom(address _from, address _to, uint256 _value) public returns (bool success) {\n        \n        require(_value > 0);\n        require(balance[_from] >= _value);\n        require(balance[_to] + _value >= balance[_to]);\n        require(allowance[_from][msg.sender] >= _value);\n        \n        if (dividendsOf(_from) > 0) reinvestTokens(_from);\n        \n        payouts[_from] -= (int256)(_value * profit_per_token);\n        payouts[_to] += (int256)(_value * profit_per_token);\n        \n        balance[_to] += _value;\n        balance[_from] -= _value;\n        allowance[_from][msg.sender] -= _value;\n        \n        emit Transfer(_from, _to, _value);\n        \n        return true;\n        \n    }\n\n    function approve(address _spender, uint256 _value) public returns (bool success) {\n        \n        require(_value == 0 || allowance[msg.sender][_spender] == 0);\n        \n        allowance[msg.sender][_spender] = _value;\n        \n        emit Approval(msg.sender, _spender, _value);\n        \n        return true;\n        \n    }\n\n}\n\ncontract IH {\n    \n    function deposit() payable public;\n    function backlogAmount() public view returns (uint256);\n    function totalSpent() public view returns (uint256);\n    function transferAnyERC20Token(address, address, uint) public returns (bool success);\n    \n}\n\ncontract POWH {\n    \n    function buy(address) public payable returns(uint256);\n    function withdraw() public;\n    function myTokens() public view returns(uint256);\n    function myDividends(bool) public view returns(uint256);\n    \n}\n\nlibrary SafeMath {\n\n    /**\n    * @dev Multiplies two numbers, throws on overflow.\n    */\n    function mul(uint256 a, uint256 b) internal pure returns (uint256) {\n        if (a == 0) {\n            return 0;\n        }\n        uint256 c = a * b;\n        assert(c / a == b);\n        return c;\n    }\n\n    /**\n    * @dev Integer division of two numbers, truncating the quotient.\n    */\n    function div(uint256 a, uint256 b) internal pure returns (uint256) {\n        // assert(b > 0); // Solidity automatically throws when dividing by 0\n        uint256 c = a / b;\n        // assert(a == b * c + a % b); // There is no case in which this doesn't hold\n        return c;\n    }\n\n    /**\n    * @dev Substracts two numbers, throws on overflow (i.e. if subtrahend is greater than minuend).\n    */\n    function sub(uint256 a, uint256 b) internal pure returns (uint256) {\n        assert(b <= a);\n        return a - b;\n    }\n\n    /**\n    * @dev Adds two numbers, throws on overflow.\n    */\n    function add(uint256 a, uint256 b) internal pure returns (uint256) {\n        uint256 c = a + b;\n        assert(c >= a);\n        return c;\n    }\n    \n}",
  "sourcePath": "C:\\Users\\evilg\\OneDrive\\Documents\\GitHub\\Genr8or\\contracts\\TimeLord.sol",
  "compiler": {
    "name": "solc",
    "version": "0.4.24+commit.e67f0147.Emscripten.clang"
  },
  "schemaVersion": "2.0.1",
  "updatedAt": "2018-09-21T07:32:37.710Z"
}